:100000000C94340018950000189500001895000015
:10001000189500001895000018950000189500002C
:10002000189500001895000018950000189500001C
:10003000189500001895000018950000189500000C
:1000400018950000189500001895000018950000FC
:1000500018950000189500001895000018950000EC
:1000600018950000189500008FEF8DBFC0EEE8EDE9
:100070004E2E88E08EBFD8E0F8E05F2EA89584B7BA
:10008000082E877F84BF88E1992780936000909332
:100090006000EEEFF7E0A0E0B1E088278D933197A4
:1000A000E9F766248FEF84B9A4E0B1E0EEE0FAE06E
:1000B0000E94FD0344E050E060E070E0A4E0B1E0A5
:1000C0000D911D912D913C910E942C041CF011F07A
:1000D0000C94CA00A8E0B1E0EEE0FAE00E94FD0353
:1000E00048E050E060E070E0A8E0B1E00D911D91C3
:1000F0002D913C910E942C041CF011F00C94C40032
:10010000ACE0B1E0E6E1FAE00E94EF03ACE0B1E080
:100110000E948F03E8E0F1E00E94420485E00E9423
:10012000C603ECE0F1E0A881B9810E94C404ACE010
:10013000B1E0E4E0F1E00E944204E881F981ACE042
:10014000B1E00E948F030E94C40485E0481A80E059
:10015000580A22960E949F03A0E0B1E0BA93AA93A6
:10016000ECE0F1E0D2010E94C40484E00E94C603E6
:100170000E947C01249684E00E94C203A8E0B1E0C2
:100180000E9475030C947000A4E0B1E00E94750316
:100190000C945A000E949F03A0E0B1E0BA93AA9386
:1001A000D201E8E1FAE00E94EF0384E00E94C60376
:1001B0000E947C01249684E00E94C2030E949F0357
:1001C000A0E0B1E0BA93AA93D201ECE1FAE00E9478
:1001D000EF0384E00E94C6030E947C01249684E021
:1001E0000E94C2030E949F03A0E0B1E0BA93AA93C9
:1001F000D201E0E2FAE00E94EF0384E00E94C6032D
:100200000E947C01249684E00E94C2030E949F0306
:10021000A0E0B1E0BA93AA93D201E4E2FAE00E942E
:10022000EF0384E00E94C6030E947C01249684E0D0
:100230000E94C2030E949F03A0E0B1E0BA93AA9378
:10024000D201E8E2FAE00E94EF0384E00E94C603D4
:100250000E947C01249684E00E94C2030E949F03B6
:10026000A0E0B1E0BA93AA93D201ECE2FAE00E94D6
:10027000EF0384E00E94C6030E947C01249684E080
:100280000E94C2030E949F03A0E0B1E0BA93AA9328
:10029000D201E0E3FAE00E94EF0384E00E94C6038B
:1002A0000E947C01249684E00E94C2030E949F0366
:1002B000A0E0B1E0BA93AA93D201E4E3FAE00E948D
:1002C000EF0384E00E94C6030E947C01249684E030
:1002D0000E94C203A881B981EEE0FAE00E94FD030A
:1002E0000895A0E1B1E0BA93AA930E945400229627
:1002F0000C947801F894FFCFE881F9819DE202E344
:1003000032E0A4E1B1E00E94E004AAE7B1E02C935E
:10031000A0E8B1E0EEE0FAE00E94FD0345E050E025
:1003200060E070E0A0E8B1E00D911D912D913C914D
:100330000E942C041CF011F00C94AE0180E0A0E8A7
:10034000B1E0AD90BD90AAE7B1E0AA0DBB1D8C93C2
:10035000A0E8B1E00E9475030C948E01A4E1B1E025
:100360000E949204ACE8B1E00D931D932D933D9350
:10037000A7E4B1E00E949204A0E9B1E00D931D93BF
:100380002D933D93A4E9B1E0BA93AA93A0E9B1E01B
:100390000D911D912D913C91D2010D931D932D93A3
:1003A0003C9384E00E94C603D201E8E3FAE00E9495
:1003B000EF0382E00E94C603D201EAE3FAE00E9462
:1003C000EF0389E00E94C6030E94040328968FE091
:1003D0000E94C203ACE8B1E0AD90BD90AAE7B1E0E5
:1003E000AA0DBB1DBA93AA93E4E9F1E0D2010E94E1
:1003F000C4048BE00E94C6030E94500224968BE046
:100400000E94C203A0E8B1E0E2E1FAE00E94FD032D
:10041000A0E8B1E04D915D916D917C9101E010E01B
:1004200020E030E00E942C041CF011F00C944302F8
:10043000249A239A2B98A0E8B1E0AD90BD90AAE74A
:10044000B1E0AA0DBB1D119698E08E91983018F47A
:10045000392F992702C038E09850881F2C9808F44B
:100460002C9A000000002B9A000000002B9800003E
:1004700000003A9591F7992341F7A0E8B1E00E9476
:1004800082030C94080282E0E5E0F0E0A5E20E941D
:100490001704AA81BB81EEE0FAE00E94FD030895F3
:1004A000A881B9810E94D804AFE9B1E08D93882773
:1004B0008C93A5EAB1E0EEE0FAE00E94FD03A1EA28
:1004C000B1E00E940704A1EAB1E00D911D912D91C8
:1004D0003C91AA81BB810D931D932D933C93AFE971
:1004E000B1E08D919C91A9EAB1E08D939C930E941B
:1004F000B103A9EAB1E04D915D916D917C9101E06C
:1005000010E020E030E00E942C041CF011F00C946C
:10051000F7028091A901E881F98101E00A93ADEA2F
:10052000B1E00E94C904ADEAB1E00E949204A6EBDA
:10053000B1E00D931D932D933D9342E050E060E0B8
:1005400070E0A6EBB1E00D911D912D913C910E94C0
:100550002C040CF402C00C94EB02A5EAB1E00D915E
:100560001D912D913C91A6EBB1E04D915D916D9166
:100570007C910E94CC03AAEBB1E00D931D932D93C7
:100580003D93A1EAB1E00D911D912D913C91AAEB13
:10059000B1E04D915D916D917C910E942204A1EAA0
:1005A000B1E00D931D932D933D93A5EAB1E00D911C
:1005B0001D912D913C91A5EAB1E04D915D916D9118
:1005C0007C910E942204A5EAB1E00D931D932D9326
:1005D0003D930C94F102A1EAB1E00E9407040C944F
:1005E0000303A9EAB1E00E9482030C947902A1EA14
:1005F000B1E00D911D912D913C91AA81BB810D938C
:100600001D932D933C93089508E010E020E030E026
:10061000AC81BD814D915D916D917C910E942704CB
:10062000ABECB1E00D931D932D933D93ABECB1E09A
:100630000D911D912D913C9141E050E060E070E002
:100640000E942204ABECB1E00D931D932D933D93DA
:1006500008E010E020E030E0ABECB1E04D915D91BE
:100660006D917C910E942704A7ECB1E00D931D933E
:100670002D933D93EA81FB81AEEBB1E00E94C4046F
:10068000A881B9810E94D804EA2FFB2F0091C701ED
:100690003197E01BF0400FEFAEEBB1E00E948F030B
:1006A0000E94D004ABECB1E00D911D912D913C91D5
:1006B00041E050E060E070E00E942704A7ECB1E068
:1006C0000D931D932D933D93E881F9810091C7010E
:1006D000AE81BF810E94D004EEEBF1E0AE81BF811C
:1006E0000E948F030E94C40408950D911D912D91C5
:1006F0003C910F5F1F4F2F4F3F4F3C932E931E9304
:100700000E9308950D911D912D913C910150104033
:10071000204030403C932E931E930E9308958F9368
:100720008D918823E9F711978F9108953197F1F70B
:100730000895689462F80895E89462F8089581E055
:1007400090E000C0EF93FF93EE27E82BE92B31F008
:10075000E0E0F0E03197F1F70197D1F7FF91EF91E9
:1007600008958D9187FB16F48FEF01C088278D9334
:100770008C93089501911191219130810895481A27
:10078000590A0895481A8827580A089599275A92AD
:100790004A92480E591E08950F921F922F92C80137
:1007A000D901489F80014A9F90014B9F202C499F6F
:1007B000100D211D321D5A9F202C589F100D211DF8
:1007C000321D599F200D311D689F200D311D699FDD
:1007D000300D789F300D2F901F900F9008950E943C
:1007E000F5030D920020D9F70895C89531960020A1
:1007F000089591E005C092E003C094E001C098E044
:10080000F4DF0D929A95E1F7089582E001C084E04B
:1008100099279D938A95E9F7089591E0882321F01F
:100820008894991F8A95E9F7892F90950895BB2799
:100830000E940D049C9198279C933197F1F798277B
:100840009C930895040F151F261F371F0895041B3E
:10085000150B260B370B08950417150726073707C6
:100860000895000F111F221F331F08950095109542
:10087000209530950F5F1F4F2F4F3F4F08950191E7
:1008800010810CC00E94BA030BC00191108117FFA8
:1008900005C03FEF2FEF04C0008111272227332727
:1008A00037FF03C0E3DF8DE28D93CF92DF92EF92AB
:1008B000AA24BB24CC24DD24EE2440E2EAE0FF2776
:1008C00055E093E38081890F87FD9F7083FD907FC2
:1008D000891B81935A95A9F7C4DFAA1CBB1CCC1CA9
:1008E000DD1CEE1C4A9551F7E894EFE0FF2782915A
:1008F0000CD0EB30E0F71EF068948A2D0AD08827E0
:100900008D93EF90DF90CF900895982F829501D02E
:10091000892F8F70805D26F0803309F408956894E4
:100920008D93089500271127222733271DD08A335E
:1009300028F4803318F005D015D0F9CF0EF496CFF7
:10094000089580538F93402F512F622F732F89DF8B
:1009500088DF78DF86DF8F919927080F191F291FFD
:10096000391F08958D910895E894FCDF8032E9F3F2
:100970008B32D9F38930C9F38D3211F46894F2CFF8
:10098000089588278D93089581918D938823E1F7A9
:10099000089509919191992351F08A95D9F731974A
:1009A000002329F081918D930A958823C9F7E9CF17
:1009B0008FEF83959D919923E1F70895689401C085
:1009C000E8942227102F231709F4089526F40E9493
:1009D000F503802D01C08191803081F0891741F0AD
:1009E00070E08D931A9591F7239571E01D93EACFEE
:1009F00001D0E8CF703011F077270895772331F4D4
:100A00002395882713958D931A95E9F7089501008A
:100A10000000050000002D00352D3600352D350075
:100A2000352D3400352D3300352D3200352D310074
:100A3000352D3700352D3800310030303030303032
:040A40003030000052
:00000001FF
